{
  "_format": "hh-sol-artifact-1",
  "contractName": "GivethV1",
  "sourceName": "contracts/GivethV1.sol",
  "abi": [
    {
      "inputs": [],
      "stateMutability": "nonpayable",
      "type": "constructor"
    },
    {
      "inputs": [
        {
          "internalType": "address",
          "name": "",
          "type": "address"
        },
        {
          "internalType": "uint256",
          "name": "",
          "type": "uint256"
        }
      ],
      "name": "addressToIds",
      "outputs": [
        {
          "internalType": "bytes32",
          "name": "",
          "type": "bytes32"
        }
      ],
      "stateMutability": "view",
      "type": "function"
    },
    {
      "inputs": [
        {
          "internalType": "bytes32",
          "name": "_note",
          "type": "bytes32"
        },
        {
          "internalType": "uint256",
          "name": "_duration",
          "type": "uint256"
        }
      ],
      "name": "createGiveaway",
      "outputs": [],
      "stateMutability": "payable",
      "type": "function"
    },
    {
      "inputs": [
        {
          "internalType": "uint256",
          "name": "",
          "type": "uint256"
        }
      ],
      "name": "giveaways",
      "outputs": [
        {
          "internalType": "bytes32",
          "name": "id",
          "type": "bytes32"
        },
        {
          "internalType": "address",
          "name": "creator",
          "type": "address"
        },
        {
          "internalType": "bytes32",
          "name": "note",
          "type": "bytes32"
        },
        {
          "internalType": "uint256",
          "name": "reward",
          "type": "uint256"
        }
      ],
      "stateMutability": "view",
      "type": "function"
    },
    {
      "inputs": [
        {
          "internalType": "bytes32",
          "name": "",
          "type": "bytes32"
        }
      ],
      "name": "idToGiveaway",
      "outputs": [
        {
          "internalType": "bytes32",
          "name": "id",
          "type": "bytes32"
        },
        {
          "internalType": "address",
          "name": "creator",
          "type": "address"
        },
        {
          "internalType": "bytes32",
          "name": "note",
          "type": "bytes32"
        },
        {
          "internalType": "uint256",
          "name": "reward",
          "type": "uint256"
        }
      ],
      "stateMutability": "view",
      "type": "function"
    },
    {
      "inputs": [
        {
          "internalType": "bytes32",
          "name": "_id",
          "type": "bytes32"
        }
      ],
      "name": "joinGiveaway",
      "outputs": [],
      "stateMutability": "nonpayable",
      "type": "function"
    },
    {
      "inputs": [],
      "name": "owner",
      "outputs": [
        {
          "internalType": "address",
          "name": "",
          "type": "address"
        }
      ],
      "stateMutability": "view",
      "type": "function"
    }
  ],
  "bytecode": "0x6080604052600060045534801561001557600080fd5b50336000806101000a81548173ffffffffffffffffffffffffffffffffffffffff021916908373ffffffffffffffffffffffffffffffffffffffff160217905550610bc9806100656000396000f3fe6080604052600436106100555760003560e01c80633e06df3d1461005a5780635de41103146100d45780638da5cb5b1461010f578063b88de10814610150578063be634ad5146101ca578063ce589b0d14610239575b600080fd5b34801561006657600080fd5b506100936004803603602081101561007d57600080fd5b8101908080359060200190929190505050610271565b604051808581526020018473ffffffffffffffffffffffffffffffffffffffff16815260200183815260200182815260200194505050505060405180910390f35b3480156100e057600080fd5b5061010d600480360360208110156100f757600080fd5b81019080803590602001909291905050506102ce565b005b34801561011b57600080fd5b50610124610420565b604051808273ffffffffffffffffffffffffffffffffffffffff16815260200191505060405180910390f35b34801561015c57600080fd5b506101896004803603602081101561017357600080fd5b8101908080359060200190929190505050610444565b604051808581526020018473ffffffffffffffffffffffffffffffffffffffff16815260200183815260200182815260200194505050505060405180910390f35b3480156101d657600080fd5b50610223600480360360408110156101ed57600080fd5b81019080803573ffffffffffffffffffffffffffffffffffffffff16906020019092919080359060200190929190505050610494565b6040518082815260200191505060405180910390f35b61026f6004803603604081101561024f57600080fd5b8101908080359060200190929190803590602001909291905050506104c2565b005b6001818154811061027e57fe5b90600052602060002090600502016000915090508060000154908060010160009054906101000a900473ffffffffffffffffffffffffffffffffffffffff16908060020154908060030154905084565b6002600082815260200190815260200160002060010160009054906101000a900473ffffffffffffffffffffffffffffffffffffffff1673ffffffffffffffffffffffffffffffffffffffff163373ffffffffffffffffffffffffffffffffffffffff1614156103a6576040517f08c379a000000000000000000000000000000000000000000000000000000000815260040180806020018281038252601e8152602001807f566f69643a2043726561746f722063616e6e6f74206a6f696e2073656c66000081525060200191505060405180910390fd5b60026000828152602001908152602001600020600401339080600181540180825580915050600190039060005260206000200160009091909190916101000a81548173ffffffffffffffffffffffffffffffffffffffff021916908373ffffffffffffffffffffffffffffffffffffffff16021790555050565b60008054906101000a900473ffffffffffffffffffffffffffffffffffffffff1681565b60026020528060005260406000206000915090508060000154908060010160009054906101000a900473ffffffffffffffffffffffffffffffffffffffff16908060020154908060030154905084565b600360205281600052604060002081815481106104ad57fe5b90600052602060002001600091509150505481565b60003411610538576040517f08c379a00000000000000000000000000000000000000000000000000000000081526004018080602001828103825260168152602001807f566f69643a207265717569726573203e2030204554480000000000000000000081525060200191505060405180910390fd5b610e108110156105b0576040517f08c379a000000000000000000000000000000000000000000000000000000000815260040180806020018281038252601a8152602001807f4475726174696f6e3a207265717569726573203e3d203336303000000000000081525060200191505060405180910390fd5b6201a5e0811115610629576040517f08c379a000000000000000000000000000000000000000000000000000000000815260040180806020018281038252601c8152602001807f4475726174696f6e3a207265717569726573203c3d203130383030300000000081525060200191505060405180910390fd5b610632346106f8565b600081420190506001610646333486610791565b90806001815401808255809150506001900390600052602060002090600502016000909190919091506000820151816000015560208201518160010160006101000a81548173ffffffffffffffffffffffffffffffffffffffff021916908373ffffffffffffffffffffffffffffffffffffffff160217905550604082015181600201556060820151816003015560808201518160040190805190602001906106f0929190610aa1565b505050505050565b61078e81604051602401808281526020019150506040516020818303038152906040527ff5b1bba9000000000000000000000000000000000000000000000000000000007bffffffffffffffffffffffffffffffffffffffffffffffffffffffff19166020820180517bffffffffffffffffffffffffffffffffffffffffffffffffffffffff8381831617835250505050610a0e565b50565b610799610b2b565b60006107a485610a37565b90506060600360008773ffffffffffffffffffffffffffffffffffffffff1673ffffffffffffffffffffffffffffffffffffffff1681526020019081526020016000208290806001815401808255809150506001900390600052602060002001600090919091909150556040518060a001604052808381526020018773ffffffffffffffffffffffffffffffffffffffff16815260200185815260200186815260200182815250600260008481526020019081526020016000206000820151816000015560208201518160010160006101000a81548173ffffffffffffffffffffffffffffffffffffffff021916908373ffffffffffffffffffffffffffffffffffffffff160217905550604082015181600201556060820151816003015560808201518160040190805190602001906108df929190610aa1565b50905050600260008381526020019081526020016000206040518060a0016040529081600082015481526020016001820160009054906101000a900473ffffffffffffffffffffffffffffffffffffffff1673ffffffffffffffffffffffffffffffffffffffff1673ffffffffffffffffffffffffffffffffffffffff1681526020016002820154815260200160038201548152602001600482018054806020026020016040519081016040528092919081815260200182805480156109fa57602002820191906000526020600020905b8160009054906101000a900473ffffffffffffffffffffffffffffffffffffffff1673ffffffffffffffffffffffffffffffffffffffff16815260200190600101908083116109b0575b505050505081525050925050509392505050565b60008151905060006a636f6e736f6c652e6c6f679050602083016000808483855afa5050505050565b60008060045483604051602001808381526020018273ffffffffffffffffffffffffffffffffffffffff1660601b81526014019250505060405160208183030381529060405280519060200120905060046000815480929190600101919050555080915050919050565b828054828255906000526020600020908101928215610b1a579160200282015b82811115610b195782518260006101000a81548173ffffffffffffffffffffffffffffffffffffffff021916908373ffffffffffffffffffffffffffffffffffffffff16021790555091602001919060010190610ac1565b5b509050610b279190610b76565b5090565b6040518060a0016040528060008019168152602001600073ffffffffffffffffffffffffffffffffffffffff1681526020016000801916815260200160008152602001606081525090565b5b80821115610b8f576000816000905550600101610b77565b509056fea2646970667358221220d836bc44d8c7d628ef35e5c090af6147c549d46a20b6b8e0a527ae47a68ac17364736f6c63430007030033",
  "linkReferences": {},
  "deployedLinkReferences": {}
}